:020000041000EA
:1000000000B5324B212058609868022188439860DF
:10001000D860186158612E4B002199600221596106
:100020000121F02299502B49196001219960352056
:1000300000F044F80222904214D00621196600F024
:1000400034F8196E01211966002018661A6600F04E
:100050002CF8196E196E196E052000F02FF8012189
:100060000842F9D1002199601B49196000215960AB
:100070001A491B48016001219960EB211966A021F2
:10008000196600F012F800219960164914480160C1
:100090000121996001BC002800D000471248134993
:1000A000086003C880F30888084703B5996A0420EC
:1000B0000142FBD001200142F8D103BD02B5186610
:1000C0001866FFF7F2FF186E186E02BD00000240BE
:1000D000000000180000070000035F00212200005C
:1000E000F4000018222000A00001001008ED00E03C
:1000F00000000000000000000000000074B24E7A12
:1001000000200420F7010010CB010010CD010010E9
:10011000C9010010C9010010C9010010C901001077
:10012000C9010010C9010010C9010010CF01001061
:10013000C9010010C9010010D1010010D301001045
:10014000C1010010C1010010C1010010C101001067
:10015000C1010010C1010010C1010010C101001057
:10016000C1010010C1010010C1010010C101001047
:10017000C1010010C1010010C1010010C101001037
:10018000C1010010C1010010C1010010C101001027
:10019000C1010010C1010010C1010010C101001017
:1001A000C1010010C1010010C1010010C101001007
:1001B000C1010010C1010010C1010010C1010010F7
:1001C000EFF30580103800BE00BE00BE00BE00BECA
:1001D00000BE00BEF2EB8871C01F0010DC1F0010D3
:1001E0003802001090A31AE71E481F49086006C88D
:1001F00081F3088810471D480068002801D019487D
:10020000F3E70DA40ECC002902D000F012F8F9E7B4
:100210001749184A002000E001C19142FCD116495B
:100220008847164988471649884700BEFDE701C937
:1002300001C29A42FBD37047DC1F0010C0000020AF
:10024000E801002004210010000004200000042028
:100250000421001000100420001004200000000001
:10026000704700000000000008ED00E0000000D032
:10027000E80100207007002005180010210300107D
:10028000FD170010F8B5C0460448054B10B5834271
:1002900003D0044B002B00D0984710BDE80100208C
:1002A000E80100200000000006480749091A8B10E9
:1002B000C90FC91810B5491003D0044B002B00D04A
:1002C000984710BDE8010020E80100200000000070
:1002D00010B5074C2378002B09D1FFF7D5FF054B4C
:1002E000002B02D0044800E000BF0123237010BDA2
:1002F00068050020000000009C1E0010054B10B592
:10030000002B03D00449054800E000BFFFF7CCFFF5
:1003100010BDC046000000006C0500209C1E0010AF
:10032000F0B5C64600B58CB0344808AB04AA03A9A2
:1003300000F078FE002803D13148304900F08CF8F5
:10034000304C089A0499039800F090FD2E49200043
:1003500001F0AAFB0023802298460793F82352025B
:100360005B0204920593C02307001B03102204A91B
:1003700008A8069301F01AFA3B000933FA011B039F
:10038000134308A9102204A8099301F00FFA0621CB
:10039000012680251D4B0800079300F043F8330029
:1003A000062241460096200001F000FC079A184BF7
:1003B00006211A40174B07201343079300F032F829
:1003C0003300072241460096200001F0EFFB069A19
:1003D000114B41461A40114B2000134306933A003B
:1003E00004AB6D02049501F03BFC23680C4A1E43EC
:1003F000266063682B42FCD12261FAE780A90300E2
:100400009C1E0010000020504C1F0010C000000473
:10041000E0FF0FFC07001000FFFFF5C100000A20FD
:10042000F0F0F0F0094A83009A1810B514684022E1
:10043000544080322240064CC000A44663441A60F7
:10044000044B9C466044416010BDC04604C001405E
:1004500004D00140004001400FB400B5084883B00B
:1004600001F004FB049B002B07D005A918000191A3
:1004700001F0AAF9034801F0F9FA012001F0BCF9F2
:10048000D01E0010E01E0010EFF3108072B6034A79
:100490001368002BFCD0BFF35F8F70472C0100D096
:1004A000BFF35F8F0022024B1A6080F31088704701
:1004B0002C0100D070B5EFF3108C72B60D4D2B6887
:1004C000002BFCD0BFF35F8F0724CB08C618C05C9D
:1004D00001230C40A3401C000440034207D11843F1
:1004E0003070BFF35F8F2C608CF3108870BD1000EC
:1004F000FFF7B2FF2C0100D0044A1078431CDBB296
:10050000172B00D9102313707047C04698010020A4
:100510000021044B044ABFF35F8F02C39342FAD118
:100520007047C046000100D0800100D0054B064A4C
:100530001360064A136053609360D3601361536184
:10054000936170478080808000E400E004E400E074
:100550001F2318401E3B8340002905D0C021044AB8
:100560004900535013607047802201498B50FAE7CD
:1005700000E100E070B50D00EFF3108672B60F4A8F
:100580001368002BFCD0BFF35F8F0D4B10309B68BE
:1005900084001B590B4A934203D09D4201D000F0C6
:1005A000FDFE074B9B681D51BFF35F8FBFF35F8F4D
:1005B0000022024B1A6086F3108870BD240100D01F
:1005C00000ED00E0C1010010024B9C46614489002F
:1005D000016070474000003470B5114C114DAC42C1
:1005E0000FD2FF262368002B0CD0FFF785FF0100F8
:1005F0002000FFF7E9FFA680BFF35F8F0834AC420D
:10060000F0D370BDFFF778FF01002000FFF7DCFF9B
:100610002671BFF35F8F0834AC42E3D3F1E7C046E5
:10062000E0010020E80100200A4B1968EFF3108078
:1006300072B60A68002AFCD0BFF35F8F1B68BFF355
:100640005F8F00221A6080F3108840BF00200021D5
:100650007047C0466C070020F0B5DE4657464E4650
:100660004546E0B583B0EFF3058203231340B54A56
:10067000990052580091904601229A409346B24BFD
:100680001A60B24B01935B46B1484363434608226C
:100690009B5E9946002B3ADA43469B881BB2002B9F
:1006A00000DB9DE043469B79002B00D0E1E0434610
:1006B00008241C5F002C20DB43465A6963001B1989
:1006C000DB00D3189D68DC686B1C00D103E1A048F7
:1006D000009984466144826A0B69AE1A9B1A9E4255
:1006E00013D35A46036A1A420FD0994800F0B8FA59
:1006F0008C4202DCC7D18542C5D940BF03B0F0BCF3
:10070000BB46B246A946A046F0BD0D61EDE74246A4
:1007100052695B0092464B44DB009A4453469E6804
:10072000DF6800F09DFA8F42B6DC00D1F8E0002FC0
:1007300000DAD9E05246534654691B69019A934244
:1007400000D1CCE0414652460820085E52880004A1
:1007500021001043984704000D0023002B4300D1D3
:10076000C2E0002D00DBDFE030003900001BA941B2
:1007700053469860D96000229A5E002A00DA8BE71F
:1007800043465D6953009C18E4002C19A768E4688F
:100790008C4200DD80E702D1874200D97CE74646E3
:1007A000328108360DE08C4200D1C6E01E000023E5
:1007B000F25E002A0ADB53009C18E4002C19A7689B
:1007C000E4689B18DB00EB188C42ECDD53461A8082
:1007D0004B46338043469B881BB2002B00DA61E70F
:1007E00043461A69EFF3108172B61368002BFCD0F0
:1007F000BFF35F8F43469E88012342465B4293804E
:1008000036B21369BFF35F8F00221A6081F310883C
:10081000002E00DA46E743465D69083342469C46AF
:100820007700BF19FF00EF19BB68604698460823A0
:10083000D15E9246FC68002907DA0EE0A24246D05B
:1008400018000023C15E002906DB4B005B18DB00AB
:10085000EB18DA68A242F1DD524606800023FE5E04
:100860003980002EDCDA904643469B79002B00D17C
:100870001DE7002342469371434646460821595ED0
:1008800008364B1C00D138E747468946556902E0D7
:1008900006004B1C18D04B005B18DB00E8180A0060
:1008A0008C46E95E43881BB2002BF1DA01235B42E0
:1008B000DC178360C4604A4503D031803B890380E4
:1008C0003A81E1464B1CE6D1B8464C46F2E69A68BE
:1008D0004245B5D9C0E7631C00D0F8E605E7200023
:1008E00023699847002825D1534642461B88138127
:1008F0001269EFF3108372B611680029FCD0BFF3C0
:100900005F8F4246514652880A804246494651808E
:100910001269BFF35F8F0021116083F31088BBE67B
:10092000864200D803E7B7E6094800F099F90019B4
:1009300069411DE7656824680FE7874200D835E7FD
:1009400044E7C046580700203C7005405906001097
:100950000040054070B52E4C2569002D04D00A21B9
:100960002C48FFF731FE70BD2B4E0321300000F004
:100970006DF9E660FFF7C0FD284B03229C46D023AB
:1009800022701B061B6801216370254B6044A36025
:100990000F23800020610220638063694942A180A7
:1009A00019800231198647311D83585218315A5225
:1009B00075325C399952183201319952183201312D
:1009C0009952183201319952083518329D5202312C
:1009D0001832995218320131995218320131995214
:1009E00018320131995218320131995218320131BD
:1009F00099520C4B0C49DC6001303562FFF7BAFDAF
:100A000001210320FFF7A4FD084B1D60A7E7C046A6
:100A10009C0100206C07002000400540400000348D
:100A2000FFFF1000580700205906001038600540ED
:100A300070B501000469EFF3108C72B620680028CD
:100A4000FCD0BFF35F8F02200D5E4C696800401937
:100A5000C0002418002D37DB208848800869BFF3C8
:100A60005F8F002606608CF31088E360638804982B
:100A7000013320615B0405985B0CA26060611A1C65
:100A8000002B1FD093B22804628018430A69EFF349
:100A9000108C72B61368002BFCD0BFF35F8F8B886D
:100AA00023808D800B69BFF35F8F00221A608CF367
:100AB00010880B7801329A40CB6808498C46634411
:100AC0001A6070BD0122DDE70B69BFF35F8F002262
:100AD0001A608CF3108801204042F2E73C200000AD
:100AE00010B543890A1493421ADD53009B184269DA
:100AF000DB00D3180469EFF3108C72B62268002A69
:100B0000FCD0BFF35F8F5A88090494B2090C8A4263
:100B100008D00369BFF35F8F00221A608CF310883E
:100B2000002010BD8022120214435C800123026960
:100B30008371BFF35F8F002111608CF3108804492B
:100B400002788C469340C268012062441360E8E753
:100B50003C200000F0B5D6464F464646C0B50400DE
:100B60000D0082B0EFF305878946002F0ED034497F
:100B700000204B6AAB4203D38A6A0130A24226D3DB
:100B800002B0E0BCBA46B146A846F0BD2D4B98462F
:100B9000DB689A46434650461E7800F061F80B0029
:100BA000514602000436B600715820008E1A290002
:100BB000801A99418F4211DC0ED020BF204A0020BC
:100BC000536A4B45DCD3926A0130A242D8D25B1BF8
:100BD0005A1E9341D8B2D3E78642EED900F048F8C6
:100BE00022002B00121A8B41002B1ADB00230193E9
:100BF000154B2200009340462B00FFF719FF011E02
:100C00000FDD0F4B5A6A4A4517D39B6AA34212D392
:100C10004046FFF765FF0A4A0020536A4B45AFD3B1
:100C2000D1E7074A0020536A4B45A9D3926A0120B5
:100C3000A242A5D2CBE74A45EAD120BFE8E7C046A9
:100C4000004005409C0100202906001010B5024A12
:100C50000248FFF72FFC10BDE41E00102007002003
:100C60000300416A0A00986A596A8A42FAD17047B9
:100C7000034B596A0A00986A596A9142FAD170473F
:100C800000400540F8B5DE464E4657464546E0B5BD
:100C90008B4605000A991800160000F0A9FC0A9B73
:100CA0006C001F02324B64199C46A40064446368C4
:100CB00081469F4200D967602B1FDBB29846012B0B
:100CC00030D9C02380229B01E31812011A60294BFE
:100CD000AD0059599A4600291BD17301E0262268BC
:100CE00053401E40802342465B01E3181E60012AE8
:100CF00030D9802380229B01E31812011A605346E9
:100D00004A4667605A51F0BCBB46B246A946A04667
:100D1000F8BD586900F06CFC013043001B18033B20
:100D2000FDD2DAE75B46012BCBD1C02303229B0126
:100D3000E3181A60023AA3681A42FCD07301E02655
:100D40002268AD0053401E4080230A4A5B01924650
:100D5000E3181E605A462168514003220A401A6077
:100D600001225B469A40A3681A42FCD0C1E7C04604
:100D70000080004024070020F0B546464F46D64686
:100D8000C0B51F00344B44009C462418A4006444A2
:100D9000636888461600FF2B02D880235B006360DF
:100DA000031FDBB29A46012B30D9C02380229B015E
:100DB000E31812011A60294B8500595999460029F8
:100DC0001BD17301E026226853401E408023524607
:100DD0005B01E3181E60012A30D9802380229B0129
:100DE000E31812011A6080235B0063604B465F5179
:100DF000E0BCBA46B146A846F0BD586900F0F8FB21
:100E0000013043001B18033BFDD2DAE74346012BB8
:100E1000CBD1C02303229B01E3181A60023AA368D6
:100E20001A42FCD07301E0262268850053401E4020
:100E300080230A4A5B019146E3181E6042462168FE
:100E4000514003220A401A60012342469340A2689F
:100E50001342FCD0C1E7C0460080004024070020B8
:100E6000014B8000C058704724070020F0B547466A
:100E7000CE4680B55B4B15005A680700884683B0A4
:100E8000FF2A02D8802252005A600322564B554E48
:100E90001A600123B4682342FCD0202231685140FB
:100EA000C0320A4051490A6032684E4E5A4003230C
:100EB00013400B600223B4682342FCD080224C4BC9
:100EC00012011A6080235B0073604A4C99464A4BBA
:100ED0003A006361012143464848009500F0BCF99F
:100EE00041463800694300F083FB454B05005A68D2
:100EF000FF2A01D84A465A608022424B12011A60EA
:100F00002169002907D0606900F072FB01304300BD
:100F10001B18033BFDD2E022394B3B4819680A40BD
:100F2000026002221968514001320A400421026025
:100F30009A681142FCD08021344A09011160802254
:100F400052005A60324B2361264B5968FF2900D862
:100F50005A6003220121244B1A60224A93681942E5
:100F6000FCD0E0231068034020480360126803238C
:100F70004A40022113401B4A036093681942FCD087
:100F800080211B4B090119608021224B49005160CF
:100F900065615A68FF2A00D8596080221E4B1201F1
:100FA0001A60A169002907D0606900F021FB0130B7
:100FB00043001B18033BFDD2402316490A685A40E0
:100FC000A0331340154A13608022154B12011A609A
:100FD00080235B004B60084BA36103B0C0BCB946E3
:100FE000B046F0BD3C8000403CB000403C9000402A
:100FF0003CA0004024070020006CDC02008002407E
:101000003080004030B000403090004030A00040C0
:10101000001BB7004880004048B0004048900040A6
:1010200048A00040F0B54E464546DE465746E0B57E
:101030001E00844B05009846A0235B009B46824B14
:10104000D9469A4643468B4685B000930292039652
:10105000009B53450DD901235B429C467B4AE144EA
:101060009446009B634400934B460F2BF0D1002025
:101070008FE01F00764B31219C466744380000F01A
:10108000B7FA07263124854264D0741EB0462E007C
:10109000250044466C433800210000F0A9FA86423E
:1010A0004CD06B1E0193012D00D1B2E04346E41AEF
:1010B0002100380000F09CFA864259D0AB1E019303
:1010C000022D00D1B1E04346E41A2100380000F0BF
:1010D0008FFA864264D0EB1E0193032D66D04346FF
:1010E000E41A2100380000F083FA864269D02B1FF1
:1010F0000193042D6BD04346E41A2100380000F020
:1011000077FA86426BD0052D6DD03800E11F00F0D4
:101110006FFA864200D171E00623242138009846F8
:10112000242400F065FA864212D0052544466C431B
:101130003800210000F05CFA8642B2D10029B0D11B
:101140005B462C00CB4647469946029A039E18E020
:10115000350046462100380000F04AFA002994D1B3
:1011600037005B463C00CB46029A9946039E08E056
:101170000029A3D15B464746CB469946029A039E77
:10118000019C5B463349012059434B461960176067
:10119000346005B0F0BCBB46B246A946A046F0BDDF
:1011A0000029E7D0EB1E0193032D98D103230921D9
:1011B00038009846092400F01BFA8642C8D0022560
:1011C00067E70029D6D02B1F0193042D93D1042368
:1011D000102498463B099E42BAD0032559E70029BE
:1011E000C8D0052D91D119213800192400F000FA3A
:1011F000B04223D00523042598464AE7002900D0B1
:101200008AE75B464746CB4601249946029A039EED
:10121000B7E73500B74200D01DE75B460127CB4654
:1012200001249946029A039EABE7022304249846C0
:10123000BB089E4200D18BE701252AE73500052631
:1012400088E7C04650262F0050F80C0020D1FFFF41
:10125000B0710B00001BB700F8B5040021481E0058
:1012600017000D0000F0C4F90100380000F0C0F9CB
:10127000069B36041B031E432368002B20DB1A4BFE
:101280001A49E3185A1E93418022920194465B4208
:101290001B0B174A1B0363441360164A13601F009D
:1012A0000A689743FBD1144B2560E2182123A06004
:1012B00013602368002BFCDA0823E6601360F8BD96
:1012C0003F2322681340AB42D9D1A3681B051B0DF5
:1012D0008342D4D1EE22E368D2021340B342CED18E
:1012E000EDE7C046001BB7000040FDBF08C000404E
:1012F00000E0004000F00040043000008023024A7B
:101300009B000B43D362704700800540142310B547
:101310000100188804331B88984710BD162310B5A8
:101320000100188802331B88984710BDF8B547465E
:10133000CE4680B50F1E19D01423994604330400FD
:101340000025012698464B461888434621681B888D
:10135000984701C4431E9841013540420640AF42C0
:10136000F1D13000C0BCB946B046F8BD0126F8E75F
:10137000AA23064A1B0113608D235B00D360044936
:10138000044B19605368002BFCDA704700400240A0
:1013900000B0FA00006002407047C04610B5014836
:1013A000FFF75AF8081F001070B5074D074EB542F9
:1013B00009D20024013E761BB60808CD98472300C9
:1013C0000134B342F9D170BD581E0010941E0010B4
:1013D000054B064A06491A60064A074B1A60100078
:1013E0000B689843FBD1704700E00040BFCDFBFE87
:1013F00008C00040FE7F3C0000F00040044BDB6C66
:10140000002B03D18022034BD2021A607047C046E2
:10141000000011504C201150044A054B1A60054A37
:101420001368DB018033FBD17047C046FFFFFF012B
:1014300000F0004008C000404022034B9A675A6702
:101440001A67DA667047C04600F0014010B5FFF732
:101450005FF810BDF8B52749274C284D641AA6102F
:101460003200302E00D930222800920000F09EF980
:10147000BC2C3BD830202F232C196407204A801B1A
:10148000E40F9B1B052B16D93700002C02D0B300AC
:10149000771CEA50001B33199B004108EB18C90068
:1014A000C9181A605A6008339942FAD101230342DD
:1014B0001CD09843C619B300EA50731C2F2E15D0C8
:1014C0009B00EA50B31C2E2E10D09B00EA50F31C58
:1014D0002D2E0BD09B00EA50331D2C2E06D09B00E6
:1014E000EA50731D2B2E01D09B00EA50054B9D60E6
:1014F000F8BDC04600010010C0010010000000202F
:10150000C101001000ED00E0002310B5294C82B0AD
:10151000A367FFF72DFF0122274B1A60636C012B95
:10152000FCD10322254B1A60224A936B012BFCD17C
:10153000013300930121224A22480433FFF78CFE35
:10154000052301210093204A2048FFF785FE002251
:10155000022104201E4BFFF70FFC00220121052071
:101560001C4BFFF709FC0022002107201A4BFFF754
:1015700003FC002200210820174BFFF7FDFB80230E
:10158000DB000093002200210920134BFFF77AFBB8
:101590000022104B00210620FFF7EEFB0420FFF78E
:1015A0005FFC0E4900F024F801000020FFF7A6FEC2
:1015B00002B010BD008000403CB0004030B00040A0
:1015C000002F685900800240008C864700C002400E
:1015D000001BB70040597307006CDC0240420F004B
:1015E00001480421014B1847C00100202D130010B1
:1015F000114A936F9B0813D210665166002905D0DB
:10160000FFE7FFE7FFE7516F106F704704B5002851
:1016100001D00020C04300F00FFC002104BDC046F3
:10162000F0B5146E556E576F166FFFF7E5FF146631
:10163000556657671667F0BD000000D0132370B5DC
:101640001D78012D19D014DD1F48FFF767FE060035
:101650001E48FFF763FE1E4C80223100200000F080
:10166000A5F8022D2DD01B48FFF750FE1A4B18602D
:1016700070BD1A4B164CA364F5E7184B144C23604D
:101680006360A360E36023616361A361E36123623C
:101690006362A362E36223636363A363E36323641C
:1016A0006364A364E36423656365A365E3652366FC
:1016B0006366A366E36623676367A367E367A36460
:1016C000D1E7064BA364CEE7534400005346000025
:1016D000680300204C33000068070020E11600106A
:1016E00007B5604601880A0A0230DF2AFAD1C9B27A
:1016F000820804D3028840880004104300E0006898
:10170000014A5050039007BD68030020132310B511
:1017100012481C78FFF702FE0100012C0AD003DDFD
:1017200080220F4800F042F80E48FFF7EFFD0E4B05
:10173000186010BD0A4C5422200000F037F80B4B03
:101740006365A365E36523666366A366E366236753
:101750006367A367E3672362E361E5E7534600003D
:10176000680400204C330000680700207117001047
:1017700007B5604601880A0A0230DF2AFAD1C9B2E9
:10178000820804D3028840880004104300E0006807
:10179000014A5050039007BD68040020014804210D
:1017A000014B1847D00100202D130010014B5B683E
:1017B00018470000D001002010B5002800D110BD4E
:1017C00000F008F9FBE7C04610B5094A03001468A9
:1017D00084B0002C08D0012200910648524203A98F
:1017E000A047012004B010BD00F040F90020F9E747
:1017F00054070020B917001000BEFDE710B5FFF731
:10180000FBFFC04670B5FFF7CFFD074D074EB54251
:1018100009D20024013E761BB60808CD9847230064
:101820000134B342F9D170BD941E00109C1E00100B
:10183000030010B5080011001B68984710BDC04692
:10184000F0B5C64600B5437D07000D001600002B1D
:1018500038D0002A2EDD00216A1E90466A5C037D86
:101860004C1C00200A2A0CD0A64216D043461B5D11
:1018700021000D3B5A4253416A5CDBB24C1C0A2AE0
:10188000F2D1002BF0D1884217DB022110483B68CF
:101890009847A64207D02000E8E7864203DD311AC8
:1018A0003B6828189847AD19013D2B780D3B5A42EB
:1018B00053413B7580BCB846F0BD091A3B682818F7
:1018C0009847E2E70368110028009847F2E7C0460E
:1018D000BC1F0010F0B5DE4657464E464546E0B503
:1018E00085B017001C0006000D00FFF7C1F90023AA
:1018F000314A12184B41802109068B4202D3012242
:101900002E4B52422E4908008A4600F09DFA019063
:101910006B1C03D1300000F0F9F90500002C26D033
:10192000284B9846284B1C68002C15D0002F21D13D
:10193000264F02E02469002C0ED02368002BF9D03A
:101940003B68002B01D09C42F4D120002A003100DA
:10195000C0472469002CF0D1019B002B28D128001E
:1019600005B0F0BCBB46B246A946A046F0BD184B38
:101970009846D7E7154B994602ABDF1D0A239B46D5
:1019800002E02469002CE7D02368002BF9D04B46F5
:101990001B68002B01D0A342F3D12A0031002000A4
:1019A000C0475B460122390020003B70C047E8E792
:1019B000504600F039FAD2E740420F00FFFFFF7FA8
:1019C000E0010020411800104C07002050070020C3
:1019D00031180010F0B5CE46474680B583B06B464F
:1019E0000600DD1D2870FFF743F900231A4A12187C
:1019F0004B41802109068B4202D30122174B5242F0
:101A000017490800884600F01FFA164B81461C68EB
:101A1000002C14D0144F02E02469002C0FD023684E
:101A2000002BF9D03B68002B01D09C42F4D1200060
:101A300001222900FFF704FF2469002CEFD14B4657
:101A4000002B05D1300003B0C0BCB946B046F0BD94
:101A5000404600F0E9F9F5E740420F00FFFFFF7F45
:101A6000E00100204C0700205007002070B5040062
:101A700000F04CF901230100050001222000FFF7CE
:101A800029FF084B1C68002C06D06368002B05D08A
:101A900098472469002CF8D1280070BD2469002CD7
:101AA000F3D1F9E74C070020F0B55746DE464E4625
:101AB00045468846E0B583B006000524FEF7E4FC01
:101AC000434684461C571879364B374AF3181B0D8A
:101AD0009B009246D75801228240013A002C42DBFB
:101AE0002021091A8C423BDC1100A14025000F4245
:101AF00036D14146096889464146897900294DD148
:101B0000AA4093463A423FD180218901002288466B
:101B1000002816D06146A44634004E46994603007C
:101B200001915100705A404500D2401951191231AB
:101B30008900013208519342F3D8019B64469C46C8
:101B40004B465A4617435246D7506046FEF7A8FC0C
:101B5000200003B0F0BCBB46B246A946A046F0BD8B
:101B600001246442F1E72024241A0DD41100A1407D
:101B700025008B46394205D109E01100A14025001E
:101B80000F42B6D0013CF8D209246442DDE7424658
:101B90001268914642469279002AB5D014246442D4
:101BA000D3E7C0460000E0AF18070020F0B54E466E
:101BB0004546DE465746E0B583B089460CA98446C3
:101BC0000D781F2A45D84946490088464944C9002E
:101BD000461837003400DC373868CC348346206838
:101BE000310001901C4880248246A40251440C60BC
:101BF00069424D411E216D428D4318498A46554424
:101C0000052B0CD9A0201F214005D83654010443D0
:101C10000532053B3C600A403560052BF6D8520181
:101C20009B06134342464A44D20062441000DC3211
:101C300013600300D8331D605B461360019BCC30FA
:101C40000360002003B0F0BCBB46B246A946A046E4
:101C5000F0BD05204042F5E7CC3000009FE00000D9
:101C6000F0B501258D400468AC430460002B2ED0F4
:101C70004D006C18E400041926001F68C836376050
:101C80009F68043677605F68DB68DC343760236008
:101C90006B18184DDB00AC468025C41864442D0633
:101CA00025602560144C0D1D8C40846001242600A5
:101CB000AE40802508318C401F21AD014519C01868
:101CC0000A40D8302E602C6002600020F0BD4D002C
:101CD0006C18E400041926008027C8367F0237609C
:101CE000C0273F03B760F82704367F02DC34376033
:101CF0002360CDE7D01000000101010110B5010003
:101D000000230022002000F043F810BD10B5830727
:101D10000AD00300032102E001330B4205D01A78F8
:101D2000002AF9D1181A10BD030019680C4A0D4C8D
:101D30008A188A4322420FD15968094A04338A1803
:101D40008A43224208D15968054A04338A188A43D3
:101D50002242F1D000E001331A78002AFBD1E1E7FA
:101D6000FFFEFEFE8080808070B5074C074D641B2F
:101D7000A41005D0013CA300EB589847002CF9D1E2
:101D800000F04EF870BDC0469C1E00109C1E001056
:101D9000F0B5C6461A4C00B52568002D2AD06C68EF
:101DA0001F2C2ADC002808D10020631C0234A40068
:101DB0006B60615180BCB846F0BD8827A600AE19A3
:101DC000F2510137FF37BC460122AC446746A240BE
:101DD0003F68904617436246176084277F00F3519F
:101DE0000228E1D1280042468D30FF3003681343BA
:101DF0000360D9E7034D2560D1E701204042D9E7D0
:101E00001407002084050020034B10B5002B02D0DE
:101E10000248FFF773FF10BD00000000691D0010AD
:101E2000F8B5C0460000000001B40248844601BC79
:101E3000604700BF5D01002001B40248844601BC38
:101E4000604700BF8501002001B40248844601BC00
:101E5000604700BFC1000020D1130010FD13001027
:101E6000E11500109D1700103D1600100D17001011
:101E70000915001019140010391400104D14001029
:101E8000D9050010551400105509001099130010C1
:0C1E90002D050010091E0010FD020010BE
:101E9C0053797374656D20636C6F636B206F662070
:101EAC002575206B487A2063616E6E6F74206265B5
:101EBC002065786163746C79206163686965766507
:101ECC00640000000A2A2A2A2050414E4943202A45
:101EDC002A2A0A000A000000486172647761726560
:101EEC0020616C61726D20256420616C7265616487
:101EFC007920636C61696D656400000048617264EF
:101F0C00206173736572740052656C656173650052
:101F1C00626F6F74325F7732357130383000000089
:101F2C00322E322E300000007069636F000000000A
:101F3C0068646100446563203236203230323500EB
:101F4C00541F00100AFF000001E042A042A00160F3
:101F5C0042A000E042A042A00160000006005250E6
:101F6C00D3F07542141F001006005250E182887F96
:101F7C001C1F001006005250ABB360532C1F0010F6
:101F8C0006005250BBFF3CB6341F001006005250E6
:101F9C00861C03023C1F0010060052505422A29DC6
:101FAC00401F001005005250DE65F468042100103B
:041FBC000D0A00000A
:101FC000681F0010741F0010801F00108C1F00106D
:0C1FD000981F0010A41F0010B01F00108C
:101FDC00F0B5C646150000B504001E000268EFF30C
:101FEC00108172B61368002BFCD0BFF35F8F0423F3
:101FFC00E356002B2DDB2268BFF35F8F00201060AF
:10200C0081F31088D0221206127852B290469A426E
:10201C0003D1002080BCB846F0BD00270BE023683C
:10202C00BFF35F8F1F6081F310882800310000F030
:10203C0033F80028EDD12268EFF3108172B61368E3
:10204C00002BFCD0BFF35F8F23797F2BE7D943465E
:10205C0002E0D0231B061B6823712368BFF35F8F3C
:10206C0000221A6081F310880120D3E70268EFF395
:10207C00108172B61368002BFCD0BFF35F8FFF2367
:10208C0003710368BFF35F8F00221A6081F310881D
:10209C0040BF70477047C04601B40248844601BC3B
:1020AC00604700BF550B001010000000000000003E
:1020BC000000000000000000000000000000000014
:1020CC00E8010020000000000000000000000000FB
:1020DC00503300004C3300005433000052330000E6
:1020EC004D5300004D4300005334000043340000B6
:0820FC000000000000000000DC
:04000005100001E9FD
:00000001FF
